:020000041000EA
:1000000000B5324B212058609868022188439860DF
:10001000D860186158612E4B002199600221596106
:100020000121F02299502B49196001219960352056
:1000300000F044F80222904214D00621196600F024
:1000400034F8196E01211966002018661A6600F04E
:100050002CF8196E196E196E052000F02FF8012189
:100060000842F9D1002199601B49196000215960AB
:100070001A491B48016001219960EB211966A021F2
:10008000196600F012F800219960164914480160C1
:100090000121996001BC002800D000471248134993
:1000A000086003C880F30888084703B5996A0420EC
:1000B0000142FBD001200142F8D103BD02B5186610
:1000C0001866FFF7F2FF186E186E02BD00000240BE
:1000D000000000180000070000035F00212200005C
:1000E000F4000018222000A00001001008ED00E03C
:1000F00000000000000000000000000074B24E7A12
:1001000000200420F7010010CB010010CD010010E9
:10011000C9010010C9010010C9010010C901001077
:10012000C9010010C9010010C9010010CF01001061
:10013000C9010010C9010010D1010010D301001045
:10014000C1010010C1010010C1010010C101001067
:10015000C1010010C1010010C1010010C101001057
:10016000C1010010C1010010C1010010C101001047
:10017000C1010010C1010010C1010010C101001037
:10018000C1010010C1010010C1010010C101001027
:10019000C1010010C1010010C1010010C101001017
:1001A000C1010010C1010010C1010010C101001007
:1001B000C1010010C1010010C1010010C1010010F7
:1001C000EFF30580103800BE00BE00BE00BE00BECA
:1001D00000BE00BEF2EB887190D10010B0D10010CB
:1001E0003802001090A31AE71E481F49086006C88D
:1001F00081F3088810471D480068002801D019487D
:10020000F3E70DA40ECC002902D000F012F8F9E7B4
:100210001749184A002000E001C19142FCD116495B
:100220008847164988471649884700BEFDE701C937
:1002300001C29A42FBD37047B0D10010C000002029
:100240006815002058E6001000000420000004207B
:1002500058E60010001004200010042000000000E8
:10026000704700000000000008ED00E0000000D032
:100270006815002028270020E5520010D502001044
:10028000A5520010F8B5C04606480749091A8B1058
:10029000C90FC91810B5491003D0044B002B00D06A
:1002A000984710BD68150020681500200000000068
:1002B000054B10B5002B03D00449054800E000BFF2
:1002C000FFF7E2FF10BDC0460000000098240020A8
:1002D000B4B5001070B5634E300005F08FF900F032
:1002E000DFFFE1214902604802F078FA0221042090
:1002F00001F096F90221052001F092F9300005F095
:100300007DF95A4B1B78002B0ED1FA20800002F0A9
:10031000C9F8574B1A6801239340564A136002F0FC
:10032000B5F904000D0037E000F06EFB524801F013
:10033000F1F8EAE75149524805F090F9514B1B7822
:10034000002B4ED1504B1B78002B6ED14F4B1B789E
:10035000002B21D04E4B19684E4805F07FF94E4BCB
:1003600019684E4805F07AF94D4B18684D4B1968DD
:1003700003F0B1FC03F06CFD02000B004A4805F0ED
:100380006DF94A4B1B78002B6AD14949494805F061
:1003900065F90A2005F024F902F078F902000B0053
:1003A000121BAB411000444A1168CA179A42F3DC91
:1003B00001D18142F0D800F0F9F800F065F900F0C1
:1003C00095F902F063F904000D002F4B1B78002B08
:1003D000B0D12C4B1B78002B01D03849ABE7384902
:1003E000A9E72F4B18682F4B196803F074FC03F032
:1003F0002FFD02000B002C4805F030F9314B186836
:1004000003F026FD02000B002F4805F027F9224BD0
:1004100019682E4805F022F92D4B19682D4805F072
:100420001DF90A2005F0DCF88CE71D4B18681D4B00
:10043000196803F050FC03F00BFD02000B001A4892
:1004400005F00CF9144B1968204805F007F9204B0A
:100450001968204805F002F90A2005F0C1F875E78F
:100460001D4993E7D8B500100080034042C5001035
:1004700000C50010A8200540ECB50010B8B500106C
:100480001CB60010F00B00201D27002024270020A0
:10049000F40B002080B60010741F002098B60010E6
:1004A000DC2400201C0C002028B600101827002097
:1004B000D4B50010B0B60010100C0020C8B5001064
:1004C000C0B50010F426002038B6001050B6001059
:1004D000301E002068B60010D0B5001010B582B0F4
:1004E0000C00144BC3185A425341134A5B009B5EE5
:1004F0008B4204D06B46DA1D1470002115E06B4668
:10050000DA1D0D23137000210029F3D183699B06A6
:10051000FCD41378036001310132F5E783699B064F
:10052000FCD413780360013101320029F6D002B007
:1005300010BDC0460080FCBFFC26002030B583B053
:1005400004000D00002313E06B46DA1D117000203B
:1005500006E0A3699B06FCD41378236001300132C6
:100560000028F6D02B780D3B5A425341DBB20135BF
:100570002978002905D0002BE6D12000FFF7AEFF37
:10058000F0E703B030BD82B000226B46D91D06E013
:100590008369DB06FCD403680B7001320131002A49
:1005A000F6D06B46D87902B070470000F0B5CE4661
:1005B00000B58AB0254B642418686043244B196841
:1005C00002F01AFC0700234B1B685C43FF2120004C
:1005D00002F012FC050001231F4A944200DC0023B4
:1005E000DAB291461D4A137064246C435A212000EC
:1005F00002F002FC06001A4B9C4200DD194E1A4B19
:1006000018681A4B196803F066FB194C089707968F
:100610000695184B1B680593174B1B68049303F052
:1006200017FC029003914B460193144B1B680093F7
:100630007323134A4021200004F0F0FD21001148EB
:10064000FFF77CFF0AB080BCB946F0BDA41F0020B4
:10065000E8C40010F8260020A55900001827002043
:1006600081230000E7030000DC2400201C0C002094
:1006700044240020301E002014270020882400205D
:10068000BCB600100080034010B50FE0124A13689A
:1006900012490020C854124B01241C7010601148EC
:1006A00004F0DCFF10BD0C4B00221A600E4B9B695E
:1006B000DB06F7D40C48FFF766FF0D28F6D00A28B2
:1006C000E4D0054B1B687E2BEDDC034A591C1160FE
:1006D000024AD054EAE7C04690240020C4230020F8
:1006E00022270020D8B600100080034010B58CB03F
:1006F000344B1B78002B01D10CB010BD00230B93A1
:10070000314932480BAA09F0F3FA002309E05C1CD6
:100710009B0001AA98502C490BAA002009F0E8FA86
:100720002300002801D0092BF1DD002B10D0019B04
:100730001B784D2B10D0542B06D1029807F050FE99
:1007400002F0E4FE224B18601E4B00221A70D3E721
:100750001C4B00221A70CFE7029B1B78722B0CD027
:10076000742B1CD0642B11D01A4B01221A701A4B17
:1007700000221A70194B1A70E6E7164B00221A7005
:10078000154B01211970154B1A70DDE7114B012231
:100790001A70114B00221A70104B1A70D4E70D4BCF
:1007A00000221A700C4B1A700C4B01321A7003980D
:1007B00007F01CFE43011B1A9B001B18DB00084AB4
:1007C0001360C1E722270020F0B60010C4230020E8
:1007D000F42600201D270020F00B002024270020F5
:1007E000F40B0020134B1A68012319009140D0220A
:1007F00012065161104A1268E021C9010A400F49EE
:100800000A600F4A082111600E4A126893400E498F
:10081000A4228B5001E0084BDB68074B9B68DB058B
:10082000F9D5044B1A6801239340D0221206936134
:100830007047C046F0C4001000C0044000D004401F
:1008400000E0044000C500100000054030B5154C24
:100850002568FF24E31A1B040004000C1843AB00B6
:100860005B199B00104DAC466344D8600F4B186871
:10087000039BE31A1B040904090C194383001B188A
:100880009B006344D9600A4B1968049BE41A240452
:100890001204120C22438B005B189B006344DA6045
:1008A00030BDC04600C5001000000540FCC400106B
:1008B000F8C4001010B582B0040008004B1EFE2BD7
:1008C00000D9FF24F52800D9FF20002A04D0F823FE
:1008D0001B1A02D5002300E00023052C3CD8A400FD
:1008E000224A12599746002201920093FF230100E9
:1008F0000020FFF7ABFF02B010BD0193002300936F
:10090000FF33020000210020FFF7A0FFF3E701936F
:10091000FF2300930023020000210020FFF796FF31
:10092000E9E700220192FF32009200220021FFF746
:100930008DFFE0E7FF220192002200920021FFF7E5
:1009400085FFD8E7FF2201920093002300220100D7
:100950000020FFF77BFFCEE700200190009003000E
:1009600002000100FFF772FFC5E7C046C4C40010D3
:1009700070B584B00023019302930393002125E016
:100980001D4B1A68D0242406606801231D00954081
:100990002A000240501E8241019D52190192174ABD
:1009A000126865681E00964032002A40551EAA4112
:1009B000029D52190292124A15686268AB401340B8
:1009C0005A1E9341039A9B18039301310D4B1B68E8
:1009D0008B42D5D80022002000E00132022A09D83B
:1009E000910001AC0C5959088C42F6D90121914073
:1009F0000843F2E704B070BD18C5001014C500101C
:100A000010C50010ECC40010F0B5C64600B5FA20C1
:100A1000C00001F047FD002432E0FA2676000027EE
:100A20003000390001F02CFD294B1B68984600224C
:100A300019002000FFF73EFF2648210004F00EFEBB
:100A40003000390001F01CFD601C062102F0FCF9A9
:100A5000080000224146FFF72DFF0135FA239B00D5
:100A60009D42DAD31C4B1B78002B0DD0601D062154
:100A700002F0EAF90D00FFF77BFF184B1D5401341B
:100A8000052C0BD80025E9E7A01C062102F0DCF9B3
:100A90000D00FFF76DFF114B1D54F0E70022002100
:100AA0000020FFF707FF0E4804F0A8FD002406E031
:100AB0000A4B195D0B4804F0D1FD0134E4B2072C58
:100AC000F6D9094804F09AFD80BCB846F0BDC0468E
:100AD00038C50010F4B6001041C50010140C0020F9
:100AE000F8B600100CB7001014B7001070B5214B09
:100AF0001C68002C33D1204B1868204B1A685B68A7
:100B00000125002B05D103D1FA239B019A4200D87D
:100B10000025EDB21A4B1B68834200DD0300184A22
:100B20001360184A1068181A174B196802F064F914
:100B30002418104B1C60154B1B68A34200DD2300DA
:100B4000002B15DB0B4A1360DA17FF211140C9187F
:100B500009120F4B18682A00FFF7ACFE70BD064A59
:100B60000A4B126818685043210002F045F9C4E7A7
:100B70000023E7E7A41F0020280C00200017002016
:100B8000741F00206C1F00203CC50010E8C400103A
:100B900084240020F8B5CE46474680B5584B594AC4
:100BA00012681A60584B594C22681A60584B1868E2
:100BB000584B196803F08FF82060574B1C685D682C
:100BC00001F064FD001BA94103F034F9041C00216D
:100BD00003F0B8F8002877D1504B1E684B4B1D68C6
:100BE000291C301C03F057F8071C011C201C03F0C3
:100BF00072F88046444B1968281C03F04CF8211CFD
:100C000003F053F88146464B1968381C03F063F82B
:100C1000041C444B1968404603F05DF8011C201C7D
:100C200003F03EF8041C404B1968484603F053F8A3
:100C3000011C201C03F02FF803F0C0F83B4B186098
:100C40003B4B1F6880231B069C46BC44E04603F0D8
:100C500093F8041C011C381C03F06EF8002837D0F0
:100C6000391C404603F07EF8002833D0404603F09C
:100C7000A5F82E4B1860224C2368C01803F07CF8AE
:100C800003F09CF820602B4B1B68834200DD0300BF
:100C9000002B2DDB1A4A1360274B1C68211C301CCB
:100CA00002F0F9FF011C281C03F054F8002809D0B9
:100CB000211C301C02F0F4FF011C281C03F042F838
:100CC000002817D1FFF712FFC0BCB946B046F8BDE7
:100CD000211CC6E7211C381C03F02EF8002803D085
:100CE000381C03F06BF8C4E7201C03F067F8C0E77A
:100CF0000023CFE701F0CAFC074B18605960E1E719
:100D0000741F0020C8240020D0240020E8260020E2
:100D1000DC2400201C0C002008170020F4260020F2
:100D2000000C0020FC0B0020F80B0020080C002019
:100D3000040C00202C0C00200C0C0020F8B5CE4632
:100D4000474680B5EFF3108172B6CA4B08221A608D
:100D5000C94B1A6801239340D02212065361C74839
:100D60008268120C0F231340C54A1360C3681B042A
:100D70001B0CC44E3360C3681B041B0CC24E336093
:100D8000C3681B041B0CC148036081F310881368FF
:100D9000032B03D0C0BCB946B046F8BDBC4BBD4E1A
:100DA00032681A60FFF7E4FDBB4B1860BB4B1B5C5D
:100DB000336000F0C3FBB54B1B689846B84B1B680B
:100DC0004246D01A0002B74A1168C91A02F014F854
:100DD000B54B18601B68FF2B03DCB34B1B68002B63
:100DE00006DBB14B1B68FF2B04DCAF4B1A6802E03B
:100DF000002200E0FF22AC4B1A60A24BAB4A1B68FA
:100E000012689B1AAA4A16685E43AA4B1E60AA4F34
:100E10003868C72358433018C82101F0EDFF02009D
:100E20003860C317A5490F68F917380002F016FF9C
:100E300004000D0000196941001969410018494179
:100E40009F4B1C68A20012195200D31702F022F81F
:100E50009C4B18608C4A9C4B12681B6853439B4AFE
:100E600013609B4B00221A709A4B1A709A4B1B7896
:100E70009946002B00D190E0984B1868984902F0F1
:100E80005BFF002807D0884B1B68002B03D0904BDA
:100E900001221A7006E0FA23DB00984577DD8D4BBE
:100EA00001221A708F4B1B78002B00D197E18E4BDB
:100EB0008E4A12681A607C4B1A688D4B1B6853432C
:100EC000DA17FF251540ED182D12002F00D095E000
:100ED000884B1F683B00AF4200DD2B00834A136044
:100EE000714B1B68002B00D090E0744B00221A60FD
:100EF000814B00200021186059607F4B19685B68A6
:100F00000122002B05D103D1FA239B01994200D87D
:100F10000022D4B24B46002B0AD06D4B1B78002B1D
:100F200000D18CE0754B9E427ADD694B00221A702D
:100F3000734B1B78002B00D132E1654B1B78002BE3
:100F400000D1FDE05B4B1A686C4B9A4200DC80E0FC
:100F50005F4B00221A70524B1B684C4A1068C01A33
:100F60000002504A1168C91A01F046FF4E4B186042
:100F70001B68FF2B03DC4C4B1B68002B78DB4A4BB8
:100F80001B68FF2B00DDC3E0474B1A68C1E0504BE4
:100F900000221A704F4B1A7084E7594B1B78002BB4
:100FA00018D04C4B00221A703E4B564A1A604B4BDD
:100FB00018684B4902F0C0FE002807D03A4B1B6866
:100FC000002B03D0424B01221A706BE7404B0022EA
:100FD0001A7067E74C4B1B78002B00D162E73C4B43
:100FE00000221A70FA23DB00984503DD394B0132E9
:100FF0001A7057E7374B00221A7053E73D4B1868B9
:101000006043390001F0F8FE070063E73A490A68D7
:101010004B680124002512196B410A604B606CE794
:101020003A4B1B68254A1360DA17FF211140C91893
:101030000912184B18682200FFF73CFC78E7254B93
:101040001B78002B02D0FFF7A5FD71E7FFF74EFDDF
:101050006EE72E4B1B68194A1360DA17FF21114007
:10106000C91809120B4B18682200FFF723FC97E000
:1010700000224EE000F00440F0C4001000C0044024
:10108000B01F0020241E00202C1E0020281E00203F
:10109000CC24002084240020B81F0020140C002041
:1010A000240C0020200C0020F8260020201E002008
:1010B000E4C400106C1F0020701F0020A41F00203B
:1010C000E8C40010301E0020E0C4001014270020E7
:1010D0002027002018270020F00B0020DC2400200F
:1010E0000000F04140C50010C8240020741F0020FB
:1010F0002C0C0020280C0020001700207F38010055
:101100001D270020FC08000024270020300C0020B0
:10111000FF223C4B1A601B683B4A12685A43D117A6
:10112000FF230B409B181B129F4200DD1F00374B13
:101130001F60374BFA22D2001A60FFF7D7FC2FE06E
:10114000344B1B68344A1068C01A0002304A1168D8
:10115000C91A01F051FE2B4B18601B68FF2B03DCF2
:10116000284B1B68002B2ADB264B1B68FF2B28DC37
:10117000244B1A68234B1A601B68234A12685A438F
:10118000D117FF230B409B181B129F4200DD1F004D
:101190001E4B1F601E4BFA22D2001A60FFF7A6FCFE
:1011A0001E4B1B78002B24D01D4B1B78002B0AD024
:1011B000164B1C4A12681A60FFF798FC19E00022CF
:1011C000D8E7FF22D6E7114B00221A60164B1A60AF
:1011D000164B186822000021FFF76CFB09E0094B51
:1011E00019680A02104B1A60104B18680122FFF7A9
:1011F00061FB0F4B1A6801239340D02212069361C2
:10120000C8E5C046F82600202C0C0020741F0020E2
:10121000200C0020240C0020281E00202427002061
:1012200018270020F40B0020A41F00208424002095
:10123000F0C40010F0B50B4E840023189B0000256D
:101240009D5123189B00B44663449D60DD608D680A
:101250001D614D685D600B6813432418A400A35101
:10126000F0BDC0460000054000230360436083607A
:1012700010334360014B83607047C046FFFF00009E
:1012800010B504001F2100F0CBF90022002120003E
:1012900000F0E0F90021200000F0F8F910BD000096
:1012A000F0B587B004F078F97C4B1D68280000F099
:1012B00001FA01242300AB40D0252D066B62784B48
:1012C0001E68300000F0F6F92300B3406B62754BE6
:1012D0001E68300000F0EEF92300B340AB62724BA1
:1012E0001E68300000F0E6F92300B340AB626F4B9C
:1012F0001E68300000F0DEF9B440AC626C4B186838
:10130000042100F08DF96B4B1868042100F088F976
:10131000694B1868042100F083F9684B18680421B0
:1013200000F07EF9664B1868042100F079F9654BEE
:101330001868042100F074F907F038F8624B186857
:10134000FFF79EFF614B1868FFF79AFF604B186824
:10135000FFF796FF642001F0A5F8002016E05D4B32
:101360001B68E022D20113405B4A13605B4B0422EE
:101370001A60584B1B68DB05FBD5564B5B681B049A
:101380001B0C57490A68D3180B600130554B19687C
:101390008142E4D8524C206801F02EFD20604D4D72
:1013A0002A68E023DB025340F822520313404A4AE2
:1013B00013604D4B1A684D4B53404D4A13404D4AF4
:1013C00013604D49162000F0EFFA0021162000F0BE
:1013D00021FC0124AC610121162000F0BDFA474B2D
:1013E0001E68B440464DA423EC504649042000F04A
:1013F000DBFA0021042000F00DFC0121042000F0A4
:10140000ABFA052001F09CFA02F0B1FC041C3E4B43
:101410001A6813029B1A580002F0A9FC011C201C38
:1014200002F043FC071C03AC2000FFF71DFFF42172
:101430008905381C02F034FC8321C90502F04BFCFD
:1014400002F0EEFC0490FE230593039B0222190098
:10145000114303910C218B4313430632134303932F
:10146000002301930093002200210020FFF7EEF9F2
:10147000002221003000FFF7DDFE244B1868002217
:101480002100FFF7D7FE224B186800222100FFF74A
:10149000D1FEA0230722EA5007B0F0BD34C50010EA
:1014A000F0C4001018C5001014C5001010C50010BD
:1014B00030C500102CC5001028C5001024C5001030
:1014C00020C500101CC500100CC5001008C5001078
:1014D00004C5001000C0044000D0044000E00440F7
:1014E000201E0020DCC4001008C0044001000003DE
:1014F0000F00000F08D004403D0D001000C5001083
:1015000000000540E5070010F4C40010FCC4001002
:10151000F8C4001010B504F071F8034804F06EF838
:1015200004F03EF810BDC04680B70010024A1368B0
:10153000013313607047C0468824002070B52D4BDE
:101540001B68002B1DD02C4B1A682C4B1B689A4231
:101550001DD1284B1B68092B25DC294B1C685D68B5
:1015600001F094F8001BA941002903DC08D1254BA8
:10157000984205D9244B00221A601E4B00221A60A3
:1015800070BD01F083F8214B18605960DBE701F072
:101590007DF81B4B18605960164A136801331360BD
:1015A000FFF7C4FFD5E701F071F804000D00184BF8
:1015B0001C605D60154B1A685B68801A994102F0E7
:1015C00039FC051C0B4E306802F0D6FB114902F0C5
:1015D00082FB114902F07FFB041C1049281C02F019
:1015E0007AFB011C201C02F060FB074B18600023F3
:1015F0003360B2E78C24002084240020CC24002017
:101600001017002020A10700DC240020F81600207D
:10161000F0160020000070420024744900000A43C4
:1016200010B58300084A9A1814684022544080324A
:101630002240064CA44663441A60C000044B9C46FA
:101640006044416010BDC04604C0014004D0014068
:101650000040014080000C4B9C46604400290ED0A5
:101660000823002A0DD004221343026853400C22A1
:101670001340802252019446604403607047002367
:10168000EFE70022F0E7C04604C00140002906D081
:101690008000064B9C4660444023036070478000F6
:1016A000034B9C46604440230360F7E704E001409D
:1016B00004F0014010B501238340D022120693624A
:1016C00093610521FFF7ACFF10BD000010B580232A
:1016D000DB05186803051B0D0B4A934207D10B4B22
:1016E000034080229201934207D1000F10BD084BA6
:1016F000084A0948132103F0D9FD084B054A06485A
:10170000142103F0D3FDC0462709000000F0FF0FAD
:10171000A4B7001044C50010C8B7001004B80010EA
:101720000FB400B583B0084803F068FF049B002B9A
:1017300007D005A90191180003F070FF034803F0DA
:101740005DFF012003F090FD18B800104CB60010AA
:10175000EFF3108072B6034B1B68002BFBD0BFF376
:101760005F8F70472C0100D0BFF35F8F024B0022C8
:101770001A6080F3108870472C0100D0F8B506007D
:101780000C001500FFF7E4FFE308F718F15C0722EF
:101790002240012393400B4205D1DBB20B433B7047
:1017A000FFF7E2FFF8BD21002800FFF7B9FFF0B511
:1017B00083B00600019114001F00FFF7C9FF00E08D
:1017C0000134BC420CD8E308F518F35C0721214032
:1017D00001228A401A42F3D1D2B21A432A7001E0A0
:1017E00001246442FFF7C0FF002C02DB200003B09D
:1017F000F0BD019B002BF9D00898FFF791FF000086
:10180000054A1078431CDBB21370172B02D9130062
:1018100010221A707047C046340C002010B582B0F8
:101820000100054C054B00931F2318222000FFF7F1
:10183000BEFF02B010BDC0463C1F002028B80010FB
:10184000002307E0054A9A189200BFF35F8F00213A
:10185000116001331F2BF5D97047C046400000349A
:10186000074B9B68103080001950BFF35F8FBFF3A8
:101870005F8F044B0021196082F310887047C046C7
:1018800000ED00E0240100D00048704700E400E0D3
:1018900010B5FFF7F9FF002302E0034A04C001334B
:1018A000072BFAD910BDC0468080808010B5038810
:1018B000DA0A1C2A05D15B055B1502335B00C018F0
:1018C00010BD034B034A8E210348490003F0EEFC90
:1018D00044B8001080C500105CB8001010B5091A9B
:1018E0000B1F0A4A88180A4A904208D8C90706D42A
:1018F0005B105B055B0D0748184380B210BD064BBB
:10190000064A87210648490003F0D0FCFC07000086
:10191000FE0F000000E0FFFF98B8001074C5001033
:101920005CB8001001238340034A10681840431E2E
:101930009841C0B27047C04600E100E0002A05D0DF
:10194000044BC0225200995019607047014A80230D
:10195000D150FAE700E100E010B50A001F23034070
:10196000012199404009FFF7E9FF10BD01238340A1
:10197000014A13607047C04600E200E0024B9B68DA
:1019800010308000C058704700ED00E010B5FFF740
:10199000F5FF044BC31A00202F229A424041C0B2E7
:1019A00010BDC046380C002070B504000D00EFF3E8
:1019B000108672B60C4B1B68002BFBD0BFF35F8FF9
:1019C0002000FFF7DBFF094B984201D0A84205D168
:1019D000320029002000FFF743FF70BD044B054A89
:1019E0000548ED2103F062FC240100D0C101001084
:1019F000C8B80010A8C500105CB80010F0B5DE46ED
:101A000057464E464546E0B589B0814601911500DE
:101A1000EFF3108B72B66F4B1B68002BFBD0BFF33C
:101A20005F8F6D4B00269E57002E40DB7400A4197B
:101A3000A4006A4824180622A256674B1A70684B05
:101A40009A684B4610339B00D35898461B1A2F2B8D
:101A50003BD9644B984531D105AF634B3B8063491B
:101A600073009A46981980005C4B984640440230B7
:101A7000FFF734FF78805E4BBB80FF23BB71FD71A5
:101A8000019B0793330053449B00434407CF07C394
:101A900001231C43A0465A4641464846FFF7E0FE54
:101AA00009B0F0BCBB46B246A946A046F0BD514BBA
:101AB000514ABE215148490003F0F8FB504B4E4AB1
:101AC00084214E48FF3103F0F1FB012342469A4343
:101AD0009246101A0C2101F0B7F900290FD1534694
:101AE0000027DA79AA4212D90621595600290DDBBE
:101AF0004A005218920039491F008B18F1E7414BF8
:101B00003D4ACA213D48490003F0D0FB1F00002F89
:101B10002ED005AB3C4A1A80813A5A800623FB56E8
:101B20000293002B17DA394805AB9A469880029A3F
:101B30009A71DD71019A0792381D2100FFF7CEFEE0
:101B4000B880BE71254B7200921992009B185246C4
:101B500013CA13C39FE7381DFFF7A8FE01007000EA
:101B6000801980001D4BC0180430FFF7B7FEDBE77B
:101B700005AF1D4B3B801D49730002939B199B00D1
:101B8000164A90461A0042440392901CFFF7A6FEA4
:101B90007880039A101D5146FFF7A0FEB8801C4BB9
:101BA00052464146521A524153431B0DBB71FD71BF
:101BB000019A0792029B9B199B00434407CF07C3DE
:101BC000114B52461380813B538001231C43A04696
:101BD00061E7C046240100D01E270020380C0020F9
:101BE00000ED00E0C101001000A1FFFF680C002023
:101BF00001BDFFFF00B9001090C500105CB80010D7
:101C000028B9001050B900100148000001BD0000C3
:101C1000AAAA000070B505000C00FFF735FEAB085E
:101C20009B00C218116803232B40DB00FF20984063
:101C300081439C402143116070BD0000F8B5012232
:101C400002432C4BD31A2F2B28D8EFF30583002BFC
:101C50002AD0EFF3108472B6274909680029FBD017
:101C6000BFF35F8F234D25490600761B76417143F4
:101C7000090D4DB2224989689B00C958914219D07B
:101C80000021032930D81B4B4A00521892009B18A0
:101C90009B795BB2AB421DD00131F2E7194B1A4A76
:101CA0001A481B4903F002FB1A4B174A17481A49F6
:101CB00003F0FCFA124A92681849D150184B1A786E
:101CC00082711D70BFF35F8F0B4B00221A6084F38B
:101CD0001088F8BD074B4A005618B6009E19FF271A
:101CE000B771104AB280E9E70F4B074A07480F491E
:101CF00003F0DCFA380C0020240100D0AAAA00006E
:101D000000ED00E0D4B9001058C500105CB8001018
:101D10007F020000FCB9001082020000C101001027
:101D20001E27002001BDFFFF08BA0010930200002B
:101D300010B582B00100074C074B00930523002229
:101D40002000FFF734FD002801DB1F23181A02B022
:101D500010BDC0462527002010BA0010024B9C463B
:101D600061448900016070474000003410B50400F0
:101D7000FFF746FD01002000FFF7F0FFFF2323716E
:101D8000BFF35F8F10BD10B50400FFF739FD0100F0
:101D90002000FFF7E3FFFF23237100236371BFF3EC
:101DA0005F8F10BD10B50D4C09E00D4B0D4A0E486C
:101DB0001A2103F07BFA2000FFF7D8FF08340B4B01
:101DC0009C4209D22368002BF5D0012BEDD12000D5
:101DD000FFF7D9FF0834F2E710BDC04660150020B8
:101DE0002CBA0010E8C500104CBA0010681500208D
:101DF000034B9C46614489000160BFF35F8F7047CD
:101E00004000003410B504000120FFF707FD010079
:101E10002000FFF7EDFF10BD30B5846A151B0B1DC8
:101E20009B001B581B1B9D4204D3046A01238B405B
:101E3000234202D1043189000A5030BD0004084316
:101E4000704700000A4B1968EFF3108372B60A68F6
:101E5000002AFCD0BFF35F8F054A1268BFF35F8F83
:101E60000021116083F3108840BF002000217047DB
:101E7000E4260020F0B5DE4657464E464546E0B51E
:101E800087B0EFF3058303221A409246AE4B9200CF
:101E9000D7583B78534507D1012352469340994682
:101EA000AA4B4A461A6025E1A94BAA4AAA489221A0
:101EB00003F0FCF97A6973009B19DB0090469844A3
:101EC00043469C68DD68A54800F0AEFB001BA941B5
:101ED000002900DA16E1002D74DB43461B699B469E
:101EE0009F4B9B454FD00823F85E4346598889B2E3
:101EF000FFF7A4FF43465969D8470290039102991E
:101F0000039A0B00100013435CD013000A00002852
:101F100047DAA41A9D41009401954346009C019D17
:101F20009C60DD600021595E002900DAEAE07869F2
:101F30004B005B18DB00C3189A68DB68A41A9D414C
:101F4000002D00DADEE039813D0008358446049139
:101F50002A000597B346009E019F049B002B2ADBB5
:101F60000023D45E63001B19DB0063449C68DD68BA
:101F700030003900001BA94100291CDB1A00002198
:101F8000595E0491E9E743465B699B461B695846E5
:101F90009847002816D05B461A685B680292039344
:101FA000ADE76E4800F040FB029B039C1B184C41C0
:101FB00000930194B1E70499059F5E46434619805A
:101FC00016809FE0434600229B5E3B813A69EFF317
:101FD000108372B611680029FCD0BFF35F8F022115
:101FE0007A5E41460A807E803A69BFF35F8F0021A6
:101FF000116083F3108885E03969EFF3108372B6BE
:102000000A68002AFCD0BFF35F8FB88800B20122B3
:102010005242BA803A69BFF35F8F0021116083F3A7
:1020200010880500BC461CE0049300229A5E002A3A
:102030000EDB049B0021595E4B005B18DB00634400
:102040009868D96834003D00241A8D41002DEBDAE0
:1020500004995D46009B9C4644460D800023E55E46
:102060002280002D12DB634658696C006419E4007D
:102070000419A668E7686146083108229A5EAB46F3
:10208000049163460093A0468446D0E767463EE04D
:102090000023BB71390008310823F85E0EE00124EB
:1020A0006442E5179460D56008243B5F834204D006
:1020B0000E8008243B5F138038813000431C29D0F8
:1020C0007C6943001B18DB00E218E65E53881BB2F4
:1020D000002BE4DB1100F0E722002B0051461F48E3
:1020E000FFF79AFE1D4800F09FFA241A8D41002D3B
:1020F00022DC1FD0194B4A465A630823FE5E002E8D
:1021000000DBD7E6BB881BB2002B00DB74E7BB7992
:10211000002BBDD10823FA5E002A0DDB796953003C
:102120009B18DB00CB189C68DD68631CD4D16B1C4A
:10213000D8D0D1E7002CDDD040BF07B0F0BCBB4603
:10214000B246A946A046F0BDB82400203C70054028
:10215000D8BA001014C6001004BB0010004005409F
:10216000751E001070B504000D0011000126AE4070
:1021700006622800FFF718FC01212800FFF7ECFB9E
:10218000024B9C466444266070BDC0463820000067
:10219000F8B5CE46474680B50600894690461F00F2
:1021A000C160FFF72DFB154B9C46604480003061F9
:1021B00043463370BBB27381D0221206127872701C
:1021C000012252423281B2809B187380002406E0C3
:1021D000621E736965002D19ED005A530134BC422B
:1021E000F6D3074B42469200D650064A414648462F
:1021F000FFF7B8FFC0BCB946B046F8BD4000003498
:10220000B8240020751E001010B5064B1B69002B6A
:1022100001D0044810BD044B044A0548652103F071
:1022200045F8C046800C002038BB0010FCC50010EB
:1022300004BB0010F8B504000569EFF3108072B616
:1022400029680029FCD0BFF35F8F0221665E6569B3
:1022500071008919C9006D18002E02DB0027E95FA3
:1022600061802169BFF35F8F00270F6080F31088C2
:10227000002E2CDB0699296107996961AA60EB6041
:102280006B8801335B04590C002B00D1012169805C
:102290003000FFF7D3FD2169EFF3108372B60A68AF
:1022A000002AFCD0BFF35F8FA2882A80A680226913
:1022B000BFF35F8F0021116083F31088E3682178FA
:1022C00001228A4003498C4663441A60F8BD01200C
:1022D0004042FBE73C20000070B582B006001400CD
:1022E0001D0008AB1B78002B07D100F0CFF92200AE
:1022F0002B00121A8B41002B0ADB079B0193069BD4
:10230000009322002B003000FFF794FF02B070BD55
:102310000020FBE7F0B5C64600B584B0050088464E
:1023200016001F000AAB1C78FFF76EFF029401979E
:1023300000962A004346FFF7CFFF04B080BCB846A2
:10234000F0BD000030B504000A1443899A422EDA29
:10235000406953009B18DB00C3182569EFF3108216
:1023600072B628680028FCD0BFF35F8F588885B20A
:102370000904090C884212D000202369BFF35F8F43
:102380000021196082F31088002811D0E3682178B9
:1023900001228A4007498C4663441A6008E00649D6
:1023A000294389B259800123A3710120E5E7002068
:1023B00030BDC0463C2000000080FFFF10B5040087
:1023C000FFF722FF2100FFF7BDFF10BD40787047E7
:1023D000F0B583B006000F00EFF30583002B1AD190
:1023E00006246442E517A4197D418D4202D803D129
:1023F000844201D90024002500F048F922002B0076
:10240000121A8B41002B0BDC08D03000390000F091
:102410004FF903B0F0BD1648FFF782F9002AF4D057
:10242000144A0023009320002900FFF773FF0028BF
:1024300013DAEAE7104B1968EFF3108372B60A68F3
:10244000002AFCD0BFF35F8F0B4A1268BFF35F8F87
:102450000021116083F3108820BF084B5B6A9D4206
:10246000E8D80649896AA142CFD29D42CDD1E1E7A1
:102470005CBB0010451E0010E42600200040054013
:1024800070B504000D0000F001F900196941002940
:1024900002DBFFF79DFF70BD012040420049F8E7D5
:1024A000FFFFFF7F10B5FA2292000023002101F008
:1024B000D5FBFFF7E5FF10BDF0B5CE46474680B52A
:1024C00083B005000C00EFF30583002B15D03F4BC4
:1024D0005B6A8B4209D33D4A926A82420BD28B429D
:1024E00001D0012002E0002000E0002003B0C0BCC9
:1024F000B946B046F0BD0120F8E7FFF785FEC36896
:102500009946037898462E002700484600F08CF83C
:1025100002000B00B61A9F41434604339B004A4613
:102520009B581B1A0022BA420FDC0CD020BF274B4D
:102530005B6A9C422DD8254A926AAA422BD29C42C1
:1025400025D00120D2E7B342F0D9214A00230093DD
:1025500028002100FFF7DEFE00281EDD1B4B5B6A12
:102560009C4205D8194A926AAA4202D29C4200D1E2
:1025700020BFFFF723FF154B5B6A9C4221D8134A0B
:10258000926AAA421FD29C4219D00120AEE70020D5
:10259000ACE70020AAE70120A8E70C4B5B6A9C424D
:1025A00009D80A4A926AAA4207D29C4201D0012065
:1025B0009CE700209AE7002098E7012096E700209A
:1025C00094E7002092E7012090E7C04600400540D4
:1025D000451E0010004870470040054010B50B4BE9
:1025E0001B69002B04D00A480A21FFF7B7FB10BD76
:1025F000FFF7F0FF0400032100F00CF8034810235C
:1026000003222100FFF7C4FDEDE7C046800C002047
:10261000E426002010B5024A0248FFF7AFF810BDCB
:10262000ACBB0010401F00200200436A906A1900F2
:10263000536A9942FAD17047416A00E0416A99426F
:10264000FCD300E0416A994202D1816A9142F9D3F8
:102650007047F0B5C64600B5804614001D00FFF770
:10266000E3FF06000F0022002B0092197B419942E4
:1026700002D804D1904202D901225242D3174046D7
:10268000FFF7DAFF80BCB846F0BD000010B5024885
:10269000FFF7CAFF10BDC0460040054010B502005C
:1026A0000B000248FFF7D5FF10BDC04600400540B3
:1026B00010B502000B000248FFF7BEFF10BDC04678
:1026C00000400540074B98420AD0162301229A4049
:1026D000054B1A60054B1B6811009943FAD17047EE
:1026E0001723F3E70080034000F0004008C00040DB
:1026F00070B5046BE30701D4200070BD0B4BC31809
:102700000B4A1A60456A836AAD01ED18AD020620D6
:1027100000F016F9074900F097FB0100280000F0CF
:1027200093FB0021FFF7BAFFE6E7C0463030000018
:10273000010300004E0E000070B504000E001500ED
:10274000FFF7D6FFE36A5E403540024BE3181D6099
:10275000206370BD2C10000070B505000C00062031
:1027600000F0EEF8C000210000F06EFB0130C60959
:1027700007D00E4B9E4215D8400834003F26064035
:1027800000E001246C62AE62002200212800FFF705
:10279000D3FF062000F0D4F88000A101891900F0D1
:1027A00053FB70BD0026024CECE7C046FEFF000064
:1027B000FFFF0000002909D00A22064B9C46604416
:1027C00043425841044B4000C2527047802252009D
:1027D000F3E7C0460080FCBFFC26002070B5040073
:1027E0000D00062000F0ACF800281ED0104B9C42D3
:1027F0001CD01622012393400E4A13602000FFF7DD
:1028000061FF00212000FFF7D5FF29002000FFF71E
:10281000A3FFE26A70235A400E331340064AA218FF
:102820001360064B23630323A36470BD1722E1E703
:102830000080034000E000402C1000000103000075
:10284000F8B5D646474680B506000D0017009846F5
:1028500044002418A400294B9C4664446368089AE9
:10286000934200D26260331FDBB29A46012B2ED90D
:1028700080221201C0239B01E3181A60204BB20092
:10288000D158002907D0586900F0DEFA0130430022
:102890001B18033BFDD27F0123685F40E0233B40D0
:1028A00080225201A21813605346012B1AD98023AB
:1028B0009B01E318802212011A60089B6360104B91
:1028C000B6004246F250C0BCBA46B046F8BD012D33
:1028D000CED10322C0239B01E3181A60A368DB0753
:1028E000FCD5D8E72168694003230B401360A36837
:1028F0000122AA401A42FAD0D9E7C046008000401F
:10290000441F0020F0B583B005000E00170018002A
:10291000089900F099FA0300089A140200943A000A
:1029200031002800FFF78CFF03B0F0BD10B582B076
:10293000802464000094FFF783FF02B010BD000004
:10294000014B8000C0587047441F0020F0B5C646B8
:1029500000B504000E0017001D00374800F074FA9F
:102960008046364BFA18364B9A4239D80100380067
:1029700000F06AFA0200103A98235B009A4235D8B8
:102980006B1E062B38D8069B013B062B34D83F091B
:10299000474537D32D04069B1B031D432368002B9B
:1029A00036DB284B9C4244D00C2201239340264A1C
:1029B0001360264A1360264A1268190091430A1EC2
:1029C000F9D12660A060234BE31821321A602268F7
:1029D000002AFCDAE56008221A6080BCB846F0BD27
:1029E0001D4B1E4A1E48112102F060FC1D4B1B4A64
:1029F0001B48192102F05AFC1B4B184A18481C218D
:102A000002F054FC194B154A1548232102F04EFCE4
:102A100022683F231340B342C3D1A3681B051B0D9B
:102A20008342BED1E368EE22D2021340AB42B8D15A
:102A3000D3E70D22B9E7C046001BB70080E84BD3AF
:102A400080F8A93200C0024000E0004000F00040E1
:102A500008C0004004300000D0BB001038C6001091
:102A600020BC00105CBC001078BC0010C4BC00107E
:102A7000024B1A68024B5A607047C046C0230020C0
:102A80000080054010B5174B8022D2051A60164B06
:102A9000164A1A6000290AD0154BE022D2041A60A7
:102AA000002809D1124B802212061A6010BD0D4B6E
:102AB000E022D2041A60F3E743011B1A9B001818A6
:102AC00000010C4B186080235B04984202D3094B31
:102AD000094A1A60FFF7CCFF054B8022D2051A6025
:102AE000E4E7C04600B0054008200140FCFF0100BB
:102AF00000A00540C0230020FFFFFF0010B5030029
:102B000010000C4A8024E4051460002B0DD0012233
:102B10001343094A094CD461094C5C401462516268
:102B200093620021FFF7AEFF10BD034B0022DA6174
:102B3000F7E7C04600B0054000800540D3C007B0AD
:102B40002D3FF84F80239B000B43014AD36270470F
:102B50000080054010B5010018231B88142210883E
:102B6000984710BD10B5010018231B881622108845
:102B7000984710BDF0B5C64600B507000E00002509
:102B80000123984600E00135B5420AD2AC003C1959
:102B90002068FFF7DFFF20600028F4D1002398466B
:102BA000F1E7404680BCB846F0BD000070B50400B7
:102BB0000D000648FFF7CEFF0300002C03DB0120C9
:102BC000A040290098470020FBE7C046554200007E
:102BD000074BAA2212011A608D225200DA60054BBF
:102BE000054A1A60024B5B68002BFBDA7047C0464F
:102BF000004002400060024000B0FA0010B504003E
:102C000001E008CC9847024B9C42FAD310BDC04665
:102C1000ACB500107047000010B50248FFF7EEFF9A
:102C200010BDC04670B50010054B064A1A60064B31
:102C3000064A1A60064B1A68044B9343FAD1704750
:102C400000E00040BFCDFBFE00F00040FE7F3C00F6
:102C500008C00040044BDB6C002B03D1034B8022E7
:102C6000D2021A607047C046000011504C2011502B
:102C7000044B054A1A60054B1B68DB43DB01FAD1A4
:102C80007047C04600F00040FFFFFF0108C0004051
:102C9000034B40229A675A671A67DA667047C04644
:102CA00000F0014010B5FEF7CBFD10BD10B50C4A89
:102CB0000C4BD21A92101400302A00D93022920004
:102CC0000948084901F0BAF904E0084A064BA10096
:102CD000CA5001342F2CF8D9034B054A936010BD1C
:102CE000C00100100001001000000020C101001010
:102CF00000ED00E070B50420FFF722FE064900F069
:102D0000A3F805000024002C00DD70BDE0B229000E
:102D1000FFF718FF0134F6E740420F0030B583B0EB
:102D2000274B00229A67FFF753FF264B01221A60B8
:102D3000234B5B6C012BFBD1234B03221A60204BEE
:102D40009B6B012BFBD10133009304331F4A0121FC
:102D50001F48FFF7FBFD052300931E4A01211E4873
:102D6000FFF7F4FD1D4B002202210420FFF7DEFDDA
:102D70001B4D2B00002201210520FFF7D7FD194C28
:102D80002300002200210720FFF7D0FD23000022AE
:102D900000210820FFF7CAFD8023DB0000932300F9
:102DA000002200210920FFF7ADFD2B0000220021A9
:102DB0000620FFF7BBFDFFF79DFF03B030BDC04607
:102DC000008000403CB0004030B00040002F685907
:102DD00000800240008C864700C00240001BB70004
:102DE00040597307006CDC0201480421014B18476D
:102DF000A00C0020752B0010124A936F9B0815D26F
:102E00009066D166002905D0FFE7FFE7FFE7516F25
:102E1000106F704704B580210906C2175140002881
:102E200000D0C84308F064FB002104BDF0B5146E67
:102E3000556E576F166FFFF7E3FF146655665767B9
:102E40001667F0BD000000D0114A936F9B0813D2A3
:102E500010665166002905D0FFE7FFE7FFE7516FD5
:102E6000106F704704B5002801D00020C04308F05F
:102E70003FFB002104BDC046F0B5146E556E576F80
:102E8000166FFFF7E5FF1466556657671667F0BDC6
:102E9000000000D094464A4A926F9208624601D2DE
:102EA00028E0C046F0B5464E346E756E776F366FCB
:102EB00000F020F89446424A146655665767166734
:102EC0006246F0BD94463E4A926F9208624601D235
:102ED00054E0C046F0B53A4E346E756E776F366F7B
:102EE00000F04CF89446364A1466556657671667E4
:102EF0006246F0BD002B24DB11D000293EDA00B57C
:102F0000C943404200D1013100F038F8C943404282
:102F100000D10131DB43524200D1013300BD002A10
:102F2000EBD1002801D1002905D00020C90FC90725
:102F300001D1C043410800B508F0CAFA00220023BD
:102F400000BD00B500290ADBDB43524200D101334A
:102F500000F014F8C943404200D1013100BDC9431B
:102F6000404200D10131DB43524200D1013300F035
:102F700005F8DB43524200D1013300BD002923D1C3
:102F8000002B18D1002A0CD0BC460D4F38667A664B
:102F900000210023FFE7FFE7FFE77A6F386F6746FE
:102FA0007047002801D00748010000B508F090FAEA
:102FB0000022002300BD02000B000020002170470A
:102FC000000000D0FFFFFFFF002B00D0BFE0130C7C
:102FD00028D1002AE7D080B4114F39667A66FFE71E
:102FE000FFE730B4040C7B6F396F1B0423433B664F
:102FF0007A66FFE7FFE7FFE7C04684B27B6F3D6F6D
:103000001B0423433B667A66FFE7FFE7C0460023C5
:103010002C042D0C7A6F386F00196941B0BC7047D1
:10302000000000D0F0B594460025140E01D1120224
:103030000835140F01D112010435940F01D192000B
:103040000235D40F01D152000135D40B0134254F84
:103050007C66254C3C660E0C93B2FFE7FFE7FFE76A
:103060003C6F6643360C7703BE467343DF0B5B044D
:10307000C01AB941130C7343DB18C91ACE08664352
:10308000360CB64493B273431F0F1B01C01AB941EB
:10309000130C73431F0B1B05C01AB941860D8F0219
:1030A0003E436643360C092D24DB520A7243801AD4
:1030B0007703460A6643360C16235B1BDE40DF406F
:1030C000BF1964466643821B70460435063301000F
:1030D000D940A840C01900D30131A24206D2002332
:1030E000F0BD0000000000D0FFFFFFFF121B013009
:1030F000F3D3F1E709277F1BFE406446A2B2724377
:10310000801A00D20139220C7243130C1204821A65
:1031100099410B007046043513370100F940A8406F
:10312000801900D30131002B02D1A2420AD2F0BD96
:10313000013000D30131121BFAD2013BF8D1A24277
:1031400000D2F0BD013000D30131121BF7E7F0B51A
:103150001C0C00D080E00CB400251C0A04D11B021A
:10316000160E3343120208351C0B04D11B01160F37
:103170003343120104359C0B04D19B00960F33435B
:1031800092000235DC0B02D192185B4101351C0024
:10319000971864410134464F7C66464C3C660E0CE1
:1031A000FFE7FFE7FFE7C0463C6F6643360C770357
:1031B000BE4697B27743C01B00D20139C01B00D274
:1031C00001399FB27743C91BC91B170C77437E0493
:1031D000FF0B801BB941CE086643360C0C2D33DB48
:1031E000B644120B1F053A431B0B97B27743C01B23
:1031F00000D201399FB27743C91B170C77433E04B5
:103200003F0C801BB941860D8F023E436643292740
:103210007F1BFE400C3D7746AF40BF1930BCA2B2C9
:10322000ABB272437343801A9941220C7243130C60
:103230001204801A994102000B000137001BA941BA
:10324000F9D2781E0021F0BD0C277F1BFE40774687
:103250007F0BAF40FF19E0E700245D1C07D0144F3F
:103260007D663966FFE7FFE7FFE7FFE73C6F95B252
:103270009EB265436643401BB141150C1E0C65436D
:10328000664336042F0C3E432D04401BB141994246
:1032900004D202000B0020000021F0BD01D19042B9
:1032A000F7D3801A994101349942F2D3F6E700002E
:1032B000000000D0FFFFFFFF48404140484018B4E5
:1032C0001B4B5B68FC46019308BD04DF2B360010E6
:1032D00018B4174B1B68FC46019308BD00DF353658
:1032E00000109446134A926F920809D2624618B4AD
:1032F0000F4BDB68FC46019308BD0CDFED38001076
:103300000C4AF0B5146E556E576F166F6246FFF794
:10331000EEFF084A1466556657671667F0BD18B485
:10332000034B9B68FC46019308BD08DF91370010F2
:10333000E0240020000000D0FFB550404240504043
:1033400059404B40594000E0FFB5154F4C00640D0B
:1033500003D0BC4204D10C0314D80020090D090588
:103360005C00640D03D0BC4204D11C030AD80022C7
:103370001B0D1B0501264B4009D44B4003D58B4246
:1033800000D18242FFBD9942FCD19042FFBD0B4368
:10339000DB1803431343F5D0C9434918FFBD0000B0
:1033A000FF07000000B5FFF7CFFF01D0002000BDF0
:1033B000012000BD00B5FFF7C7FF804100BDC0463A
:1033C00000B5FFF7C1FF01D9002000BD012000BDFD
:1033D00000B5FFF7B1FF01D9002000BD012000BDFD
:1033E00000B5FFF7A9FF804100BD012040054A005C
:1033F000121804D85A00121801D800207047012072
:10340000704700000021002805D17047C1174840CF
:10341000401AFAD0C90713B5064B1B6898470CBC75
:10342000441CA2401005120B0349091B090519434E
:10343000114310BDE02500201F04000010B54C0012
:10344000620D8023D218DB00D21A5B057E2A10DDC4
:103450009E3A13DACC170903490819435242D14066
:10346000640001341532202A05DAD0400843604355
:1034700010BD002010BD0846604310BDC80FC01825
:10348000013810BD18B4044B5B6AFC46019308BDBB
:1034900024DF9D3A00100000E024002018B4044B03
:1034A000DB6DFC46019308BD5CDFA93B001000000A
:1034B000E0240020C94211D300B549004908002288
:1034C00000F018F8002904D4002240428A41114635
:1034D00000BD80210906002000BD000018B4044B87
:1034E000DB6EFC46019308BD6CDFAB3A00100000B8
:1034F000E024002018B4044B9B6FFC46019308BDE8
:1035000078DFC73A00100000E024002018B4044B14
:10351000DB6FFC46019308BD7CDF353B00100000EB
:10352000E024002070B513231C78012C12D0012C4C
:1035300012DC214B214A93642148FFF70BFB214BFE
:10354000186070BD1C491D4A9800815001331F2B23
:10355000F8D9ECE70023FAE71B48FFF703FB050067
:103560001A48FFF7FFFA023803789B007F2B09DD2A
:1035700012488022290000F061FD022C08D0022CA4
:10358000DADCD6E7124B134A1348332101F08EFEE2
:10359000124B1A88B5231B029A4209D1104B1A8884
:1035A000104B9A4204D1104B1A88104B9A42E6D025
:1035B0000020FEF7B5F8C046F1350010E0240020E9
:1035C0004C330000E0250020534400005346000027
:1035D000E0BC001044C6001024BD001054380000A8
:1035E000D8380000494600009C38000059460000C9
:1035F00007B56046002800D100BE01880A0A0230E3
:10360000DF2AFAD1C9B2820804D3028840880004B4
:10361000104300E00068024A5050039007BD0000CC
:10362000E02400200FB403BC0CBCF0B50124E40777
:10363000634000E0F0B50C0DCF0F661E3605891B08
:10364000640503D3C943404200D30131640D03D064
:10365000661CF60A07D0E41B00207F00791C89074E
:103660008912803C24031D0DDF0F6E1E36059B1B47
:103670006D0503D3DB43524200D301336D0D03D0FC
:103680006E1CF60A07D0ED1B00227F007B1C9B07F7
:103690009B12803D2D032F1B661B58D4A446202E61
:1036A00046DA20371400BC401D00BD40F2403341D3
:1036B0002A4380185941CB0F05D0C943C04300228B
:1036C00064425041514162464D0D28D10D0D07D144
:1036D00000281FD0241940414941013A0D0DF9D06D
:1036E000640006D3013000D30131002C01D1400821
:1036F0004000013A0BD4941CE40A04D11205114491
:10370000DB071944F0BDD907204B194300E0D90766
:103710000020F0BD0029DDD1002CDBD1F0BD01324D
:10372000C6074008CD0728434908002EE1D0D9E755
:103730003C2E29DA203E40371400BC4000D0012442
:10374000F24014431A00BB401C43D317ACE7AC460D
:10375000202F08DA20360400B4400D00B540F840B0
:1037600039412843A5E73C2F0CDA203F40360400BE
:10377000B44000D00124F84004430800B1400C4399
:10378000C117EAE710001900002494E70000F07F59
:10379000F0B50C0D661E3605891BE60A6405640D3E
:1037A00002D0651CED0A04D0002001210905803CEF
:1037B0002403A4461C0D671E3F05DB1BE70A6405B6
:1037C000640D02D0651CED0A04D0002201231B0504
:1037D000803C24037740644497B484B296B2744327
:1037E000070C7E43150C6F4380B26843361802D332
:1037F000012000043F183004350C00197D41844637
:1038000088B29AB250430C0C62431F0C7C438EB2B8
:103810007E43921902D301263604A4191604170C0C
:103820003618674101BC81B29AB25143040C62431D
:103830001B0C5C4380B25843121802D301200004D1
:1038400024181004130C401863412D185E41002009
:10385000474106BC88B293B258430C0C6343120C28
:10386000544389B251435B1802D3012109046418FF
:1038700019041A0C091862416D185641002047417D
:1038800018BCF902720D1143F0026A0D1043ED02EB
:103890000A0D03D16D1940414941013B124E9B1B5A
:1038A0007600B3420ED26D0007D30130002671417D
:1038B0006646354301D1400840001B05C918E4079E
:1038C0002144F0BD0BDA013306D1013004D10131BE
:1038D0004F0D01D04908F2E7E1070020F0BD0136A5
:1038E00031050020EBE70000FF030000F0B51C0DE0
:1038F000671E3F05DB1BE70A6405640D02D0661CEA
:10390000F60A04D0002201231B05803C2403D025A5
:103910002D060026F6432E661E096E66CE0FF6199A
:10392000B44649004F0D02D07E1CF60A03D0002099
:103930000021403F3F033E1BB600B444013F7F05DA
:10394000C91B49082E6F013676089C02950D254348
:103950007543ED137543AD1301356D10F603761BFA
:103960000CB4CC02450D2C43A2B2B3B25A43270C7F
:103970007B43350C6F43A4B26C431B1902D3012463
:1039800024043F191C041D0CA4187D4124196D4109
:10399000009A91B2ACB26143170C7C432B0C5F438D
:1039A00092B25A43A41802D301221204BF1822046F
:1039B000230C52187B41019C6C431B19520ED901F8
:1039C0000A434401A01A81B2B2B2514303145A43CC
:1039D000360C734387B27743D617D21900277E413E
:1039E00036049B191704160C7F185E417316ED18E8
:1039F000F301002680337541A90F06D16400690ADE
:103A0000E8055B0A184309D22FE00422944480336E
:103A10007541A90AA8059B0A184326D3404149418C
:103A20002404009A019B0D005543641B4343E41A90
:103A300095B286B27543170C7E43030C5F4392B276
:103A40005A43B61802D301221204BF183204330CB1
:103A500052197B4152429C41002C02D40022013079
:103A600051414008CA071043490802B06246D707CF
:103A70009210084BD218084B9A4203D212058918AB
:103A8000C919F0BD0020002A01DC3900F0BD013366
:103A90001905F5E7FD030000FE070000002200B550
:103AA000203200F010F8080000BD002200B500F040
:103AB0000CF8CA179A4200D100BDD8430121C907AA
:103AC000414000BD00220B150AD410B5944600F009
:103AD000A7F81414013400DA0021CB17144C204746
:103AE0000020002170476244343A0CD40C2A07DAD3
:103AF00004009140904052422032D440214310BDF6
:103B0000D843D94310BD203207D40C4694405242CA
:103B100020321141D040204310BD0800C917203287
:103B200003D452422032104110BD1800190010BDBC
:103B3000E73A00104A00520D144BD21A13DDFF2A47
:103B40001EDAD205CB0FDB071A43C300400F09036F
:103B5000490A084310435B0001D301D0013070478C
:103B60004308FBD2704702D0C80FC00770470A0352
:103B700012130132F8D1420F072AF5D1012200E0D9
:103B8000FF22C80F00028018C005704780030000A4
:103B900000210A00002104E000210A00C11704E00E
:103BA0000022002306E0C0460022CB1758405940AF
:103BB000C01A994130B5184CA21A002903D101004E
:103BC00010D00020203A4C1512D104D2013A00182E
:103BD00049414C0DFAD3114CA24204D21205891866
:103BE000DB07C91830BDD243520D00200021F5E794
:103BF00003D4013A00184941FBD50B324405C00AF1
:103C00004D052843C90A640003D000246041614186
:103C1000E1E7E0D34408F8E732040000FE070000C3
:103C20000A0DCC0F531E1B05C91A520503D3C943F5
:103C3000404200D30131520D03D0531CDB0A07D0A0
:103C4000121B00206400611C89078912803A12034C
:103C5000014BD21A70470000FF0300005143434359
:103C6000C9188C46110C83B24B4310B4040C614349
:103C700092B280B2504362431C041B0C001910BC6A
:103C800059411304120CC01851416144704700009F
:103C900048404140484000239C46114B5B68184710
:103CA00000239C460E4B1B6818470E4A936F9B08D7
:103CB00004D200239C460A4BDB681847F0B5146E0B
:103CC000556E576F166FFFF7F4FF064A1466556678
:103CD00057671667F0BD00239C46014B9B68184749
:103CE000E4250020000000D007B54840414048408E
:103CF00001E0C04607B54200120E03D0FF2A03D1EF
:103D0000420218D8C00DC0054A00120E03D0FF2A87
:103D100003D14A020FD8C90DC9050122414005D47B
:103D2000414001D5814207BD884207BD0143491882
:103D300001D0C043001807BD00B5FFF7DBFF80418D
:103D400000BDC04600B5FFF7D5FF01D9002000BD7A
:103D5000012000BD00B5FFF7C7FF01D9002000BD5D
:103D6000012000BD00B5FFF7BFFF804100BD491A2B
:103D7000002807D108467047C10FC90700D5404247
:103D8000002817D0F44603B40B4B1B68984706BCB9
:103D900081409E384042803107D20B0607D049004F
:103DA000490AC0051043084360470130F8E7490A53
:103DB0008902F5E770470000E025002041000A0E67
:103DC00080231B067E2A0BDD9E3A0BDAC1174002C8
:103DD000400818435242D0404900013148437047DF
:103DE00000207047C00FC01801387047C0420DD383
:103DF00000B540004008002100F012F8002801D46E
:103E0000404200BD8020000600BD0000034BDB697E
:103E1000FC4618471CDFD93F00100000E4250020B5
:103E200000239C46014B5B6A18470000E4250020F4
:103E3000054A1047C2179142FAD0044BDB6DFC468D
:103E400018475CDFA73F0010793D0010E4250020F3
:103E5000034BDB6FFC4618477CDFF13F001000008E
:103E6000E425002070B513231E782A48FEF77AFE59
:103E70000500012E11D0012E09DDAB1E1B789B0021
:103E80007F2B40DD24488022290000F0D7F823480A
:103E9000FEF760FE224B186070BD1F4854222900B7
:103EA00000F0CCF81F4B1A881F4B9A421CD1A72355
:103EB0009B011A881D4B9A4216D11D4B1A881D4B27
:103EC0009A4211D11C4B1A8894239B019A420BD120
:103ED0001A4B1A881A4B9A4206D11A4B1A681A4B77
:103EE0009A4201D1152307E01848FDF719FC184C38
:103EF000094A99008C5001331F2BF8D9144B064AFC
:103F00001362D361B7E7134B134A1448422101F0FF
:103F1000CDF9C04653460000E42500204C33000094
:103F2000E0250020EE290000C40F0000C20D0000B3
:103F3000962B0000C0B50000182B0000CC2A000012
:103F400010B50000FC2C000051ED876494B6001001
:103F5000613F001070BD001058C60010A4BD0010D5
:103F600007B56046002800D100BE01880A0A023069
:103F7000DF2AFAD1C9B2820804D30288408800043B
:103F8000104300E00068024A5050039007BD000053
:103F9000E4250020002230B5002906D5CD070543D1
:103FA0004808013A10E0002230B505000D430FD05B
:103FB000CD170C16AC4205D1C901440E2143C001F6
:103FC0000732F6E70500080052423D3201498847B2
:103FD00030BD0000EF2900000021C2158032803280
:103FE00001D0024A1047002070470000CD2A00008F
:103FF000C30FDB0741000A0E07D0FF2A08D00909CA
:10400000054A891819434007704719000020704776
:104010000249C918FAE70000000000380000F07FEC
:1040200001480421014B1847B00C0020752B0010EB
:10403000014B1B6818470000B00C0020014B5B6867
:1040400018470000B00C00209A4200D288547047F4
:10405000704710B5002802D00B684968984710BD1A
:104060000100002007E083001B185B00501C086063
:104070001078C01830380A681378303BDBB2092B4F
:10408000F1D97047F0B5DE4657464E464546E0B595
:1040900083B093461F000C9B9A460D9C0E9B99463D
:1040A0000F9B9B0717D0B8460F00060022E0551C57
:1040B0004B4641462020B84701342A00B442F6D38B
:1040C0003D004F465C46019B9B46B1464646B8467E
:1040D00037002E000EE00192A34688464E46B946B0
:1040E0000700EBE7013C551C5346185D4346390079
:1040F000B0472A00002CF5D135003E0047460F9B03
:104100009B0711D4100003B0F0BCBB46B246A946D1
:10411000A046F0BD541C4B4641462020B847220023
:10412000531BB342F6D3EDE7B0464E46B9462F00D7
:104130005D46F5E7F0B5CE46474680B585B0944676
:1041400098460C9D0D9C0EAB1B789946109A119BBE
:10415000129EB7071CD4002B0CD0F7070AD54F4688
:10416000002F02D10C37374204D0013B02E0302748
:104170002F550134944201D21F2CF8D9F70707D5E7
:104180009C4205D21F2C03D830272F550134F5E768
:10419000F70612D5770505D4002C03D0944221D020
:1041A0009C421FD00F9A102A2FD00F9A022A36D085
:1041B0001F2C0AD830222A5501341F2C05D84A4614
:1041C000002A32D02D222A550134039602930194FD
:1041D000009543466246FFF755FF05B0C0BCB9469F
:1041E000B046F0BD621E012C17D00F9F102F0BD0D0
:1041F00014000F9A102AD8D1B206D6D51F2CD4D8C5
:1042000058222A550134D3E7023CB206F1D41F2CC0
:10421000EFD878222A550134CAE71400C2E71F2CD0
:10422000D3D860322A550134C2E7720703D52B2256
:104230002A550134C9E73207C7D520222A5501344F
:10424000C3E7F0B5DE4657464E464546E0B593B067
:1042500081468A46089209931CAB10CB1B789B467B
:104260001E9D219B9846002C03D1102342469A4361
:1042700090468023DB0046461E4042461A4218D034
:10428000002C22D0002614E0424692061BD5412184
:10429000C918C9B20A39C9B2771C0AAB99552900A5
:1042A0002000FEF7D1FDAC4210D31F2F0ED83E00E8
:1042B000040029002000FEF7C7FDCBB2092BE3D88C
:1042C0003033D9B2E8E76121E2E72700434606939D
:1042D000209B05931F9B049303955B4602930197D4
:1042E0000AAB0093099B089A51464846FFF722FF04
:1042F00013B0F0BCBB46B246A946A046F0BDF0B52F
:10430000DE4657464E464546E0B597B00A900B91BB
:104310000C929A46209B9946219F22AA13789B468D
:10432000249B0993259C289B98464A463A4302D1F0
:104330001032934398468022D200454615404346AA
:1043400013420AD04A463A4341D000252E00534634
:104350000D934D46099B9A4621E02E0053460D933E
:104360004D46099B9A461AE04246920623D54122C1
:10437000D218D2B20A3AD2B2731C99460EAB9A55F1
:104380005246230028003900FEF79CFDBC4220D88D
:1043900013D04B461F2B16D84E4605000F00524631
:1043A000230028003900FEF78DFDD3B2092BDBD89E
:1043B0003033DAB2E0E76122DAE7AA45E9D94E46BE
:1043C0000D9B9A4608E04E460D9B9A4604E0002657
:1043D00002E04E460D9B9A4643460693279B059363
:1043E000269B0493099B03935B46029301960EABB5
:1043F000009353460C9A0B990A98FFF79BFE17B04F
:10440000F0BCBB46B246A946A046F0BDF0B5DE46BC
:1044100057464E464546E0B591B0804689460C92D7
:104420009A461A9C1B9D22002B0020002900FEF7B3
:10443000DCFF002800D0F2E001225242D54B2000E0
:104440002900FEF7CDFF002800D0E8E0012252420B
:10445000D14B20002900FEF7ADFF002800D0DEE0A0
:104460000022002320002900FEF7A4FF002800D02E
:10447000EAE0069407958023DB001E9A1A400D920D
:104480001E9A1A4201D106231C930698079902002E
:104490000B000892099303000A00024300D1DFE0F9
:1044A000080D4005400DBD4EB4466044079E3203E2
:1044B000120B1E00BA4B13431F00FEF7A7FFB94AA9
:1044C000B94BFEF72CFFB94AB94BFEF701FF089034
:1044D00009910022B74B30003900FEF7F0FEB64AD2
:1044E000B64BFEF71CFF02000B0008980999FEF777
:1044F000EFFEFEF7A3FF8346FEF788FF06000F00DE
:10450000AF4AB04BFEF70BFF0022AF4BFEF7E0FEC9
:10451000FEF794FF0890AD4AAD4B30003900FEF72E
:10452000FEFE06000F000898FEF770FFA94AAA4B8E
:10453000FEF7F5FE02000B0030003900FEF7BFFE6B
:1045400006000F0002000B00FEF7E9FE0A900B9137
:10455000089BA24A944663440021002208910992D4
:104560001B0509930023089332003B0030003900FB
:10457000FEF7AEFE0E900F9132003B00002080212E
:10458000C905FEF79CFE06000F000022944B0A9816
:104590000B99FEF7A6FE0022924BFEF799FE020051
:1045A0000B000A980B99FEF79CFE00228E4BFEF73B
:1045B0008FFE02000B000A980B99FEF792FE020094
:1045C0000B0030003900FEF783FE02000B000E984E
:1045D0000F99FEF786FE0022714BFEF779FE089ACE
:1045E000099BFEF79CFE06000F0008960997069AA5
:1045F000079BFEF7F5FE00280BD001235B429C468B
:10460000E3440022774B30003900FEF76AFE089041
:1046100009915B466333C62B45D8042623E01E9BD5
:1046200004931D9B03931C9B029300940195534696
:104630000C9A4946404600F0FBF811B0F0BCBB466E
:10464000B246A946A046F0BD00210022069107927D
:10465000069480231B069C46AC44634607930AE7F6
:1046600000239B4604261E9B1B0528D5089A099B00
:10467000190011430FD05D4A5D4B06980799FEF76C
:10468000A7FE00287AD000225A4B06980799FEF719
:1046900091FE002872D01C9B5B4506DD5A469B1A92
:1046A000013B1C9303E00526DDE700231C938023D8
:1046B000DB001E9A1A431E92002600239B461D9B78
:1046C0009E4265D29F1B02231E9A1A400A921E9A8E
:1046D000134202D0002E00D000275B46002B07D0EB
:1046E000089A099B06980799FEF7FBFD069007912B
:1046F0000022002320002900FEF75CFE002800D0E5
:104700007CE03D4B1E9A1340049303971C9B02933D
:10471000069B079C0093019453460C9A49464046D9
:1047200000F086F8002E00D187E71E9B9B0671D50E
:104730004525441C5346020049462800C0475A46B6
:10474000D317D2185A4005230593013E049600233F
:1047500003930A3302935B46DB0F019300925346A7
:10476000220049464046FFF76CFD0A9B002B00D112
:1047700063E7020047460C9E1D9D53E01C9B002BE7
:104780009DD00D9B002B9AD01C9B013B1C9396E760
:10479000002798E7FFFFEF7FFFFFEFFF01FCFFFF20
:1047A0000000F03FFB799F501344D33FB3C8608BA8
:1047B000288AC63F0000F83F61436F63A787D23F56
:1047C00071A379094F930A400000E03F1655B5BB2D
:1047D000B16B0240EF39FAFE422EE63FFF030000C4
:1047E00000002C4000002440000018402D431CEB2A
:1047F000E2361A3F80842E41FFF7FFFF069C079D9B
:104800002200290080200006844661440B000692A5
:10481000079376E765258CE7541C534649462020CC
:10482000B8472200931BAB42F6D3100005E7C04601
:10483000F0B5DE4657464E464546E0B595B0069083
:10484000079193469946209F1E9A1F9B10001900BE
:10485000FEF7CBFD002831D101225242BC4B1E98FD
:104860001F99FEF7A7FD002837D101225242B94B0C
:104870001E981F99FEF7B4FD00283DD10022B64BCB
:104880001E981F99FEF7ACFD00284AD10022B34BB9
:104890001E981F99FEF78EFD002842D100220023AA
:1048A0001E981F99FEF786FD00284AD100239846DE
:1048B000229B5B0500D4B0E0002452E0229B0393CE
:1048C000219B029303230193A54B00934B465A4629
:1048D00007990698FFF7D6FB08E1229B0393219BDB
:1048E0000293042301939F4B00934B465A4607992A
:1048F0000698FFF7C7FBF9E0229B5B070ED59A4BA2
:1049000004222299039121990291019200934B462E
:104910005A4607990698FFF7B5FBE7E0934B032249
:10492000EFE7229B0493219B039302971E9B1F9CFE
:10493000009301944B465A4607990698FFF766FD87
:10494000D4E01E9A1F9B00200021FEF7B8FC1E90A9
:104950001F9101239846ABE70CAB30221A55013F5B
:1049600001341F2C01D8092FF6D81E981F99FEF785
:1049700065FD0500FEF74AFD02000B001E981F9919
:10498000FEF79DFC7A4BFA009B181A685B680A9246
:104990000B93FEF7C4FC08900991FEF773FD060027
:1049A000FEF730FD02000B0008980999FEF787FC1E
:1049B0000890099100226F4BFEF712FD00282ED0BF
:1049C00001363000FEF71EFD02000B000A980B991D
:1049D000FEF7F6FC002801D001350026002F2CD16F
:1049E0002800FEF713FD02000B001E981F99FEF72A
:1049F00066FC06000F0000225E4BFEF7DBFC002881
:104A000046D100225B4B30003900FEF7E9FC00285C
:104A10003ED1EB073CD501353AE006274CE70022B2
:104A2000544B08980999FEF7C5FC0028D6D1002EF2
:104A300001D0F307D2D50136D0E7AA461F2C11D8F2
:104A4000013F0A213000FEF7FFF9651C30310CAB45
:104A500019550A213000FEF7F7F9092E0ED9060084
:104A60002C00EBE755461F2C0CD87B1E002F09D0DD
:104A70000CAA302111551F000134F4E72B005546D4
:104A80001C00F0E71F2C03D80CAB2E221A55013462
:104A90001F2C10D80A212800FEF7AEF9661C303111
:104AA0000CAB19550A212800FEF7A6F9051E01D006
:104AB0003400EDE734000323229A1340012B1CD06D
:104AC0001F2C06D84346002B32D00CAB2D221A5592
:104AD0000134229B0393219B029301940CAB00931E
:104AE0004B465A4607990698FFF7CCFA15B0F0BC2A
:104AF000BB46B246A946A046F0BD219B002B13D071
:104B00004346002B02D10C3313420FD0219B013BB3
:104B10002193190003E00CAB30221A5501348C426A
:104B2000CED21F2CF7D9CBE72199F8E72199F6E7E8
:104B3000229B5B0704D50CAB2B221A550134C8E726
:104B4000229B1B07C5D50CAB20221A550134C0E7A8
:104B5000FFFFEFFFFFFFEF7F65CDCD4165CDCDC1FD
:104B60004CBE001050BE001040BE001048BE0010E9
:104B700060C800100000E03FF0B5DE4657464E46E4
:104B80004546E0B593B007008A4693461193002945
:104B900000D12CE3002508E06C1C5B462A0051463E
:104BA000B847119B013311932500119B18780028F9
:104BB00000D11EE32528EFD1013311930023180003
:104BC00020E00123184301321192012418E002234E
:104BD000184301321192012412E0042318430132D8
:104BE000119201240CE00823184301321192012490
:104BF00006E01023184301321192012400E0002442
:104C0000002C09D0119A1378203BD9B21029F6D87C
:104C10008B00C449CB589F468146119B1A781300DC
:104C2000303BDBB2092B10D92A2A13D00B94119BED
:104C30001A782E2A20D0119A1378683BD9B21229FB
:104C400065D88B00B849CB589F4611A8FFF708FAE2
:104C50000B90ECE71C9B1A1D1C921B68002B04DBBD
:104C60000B93119B01331193E1E7022201001143E1
:104C700089465B420B93F4E78022D20049461143F8
:104C800089465A1C11925A781300303BDBB2092B2B
:104C90000BD92A2ACFD11C9B1A1D1C921C68002CF0
:104CA00008DB119B01331193C5E711A8FFF7D8F971
:104CB0000400C0E70024F4E780235B0049460B436F
:104CC000511C119151786C2901D099461FE0C023E5
:104CD0009B004946194389460232119217E080230E
:104CE00049460B43511C11915178682901D09946CE
:104CF0000DE0C0234946194389460232119206E06D
:104D000080235B0049461943894601321192119B69
:104D1000187867281CD8252800D25EE20300253BBE
:104D2000DAB2422A00D958E29300804AD3589F460B
:104D300080239B0049461943894601321192E6E7D8
:104D400080235B0049461943894601321192DEE710
:104D5000782800D941E2692800D23EE20200693A8F
:104D6000D2B201239340724A134210D11A0600D5E1
:104D70000CE25B0500D430E21C9B1A1D1C921E68DD
:104D8000002C00D0BAE101225242330096E16F2894
:104D900042D005D8582841D0622803D1022606E027
:104DA00078283DD010234A469A4391460A2658282F
:104DB00038D0692805D0642803D00C224B46934391
:104DC00099464B465A0502D50122934399466928D4
:104DD0002DD064282BD04B469A0500D5AAE0DA05E1
:104DE00000D5C2E05A0600D4D3E01C9A111D1C91D4
:104DF0001168FF220A404B4605930B9B04930394D2
:104E000002960023019300925B462A005146380027
:104E1000FFF717FA05002AE00826C8E71026C6E7BC
:104E20001026C4E720224B4613439946C1E74B4660
:104E30009A0520D4DA0551D45A0666D51C9A111D5C
:104E40001C911168FF220A40D017111841404B46AF
:104E500005930B9B049303940296D20F0192009149
:104E60005B462A0051463800FFF7EBF90500119B1D
:104E70000133119399E61C9A073207218A431100E6
:104E800008311C91116853689C46DB170C930D93F5
:104E90000C9A0D9B100048400E900D9B61464B40B4
:104EA0000F930E980F990C9A0D9B801A99410E90B2
:104EB0000F914B4608930B9B07930694049600238F
:104EC00005936346DA0F0292009001915B462A0037
:104ED00051463800FFF713FA0500C8E71C9A111D68
:104EE0001C911268D0171118414005930B9B049335
:104EF00003940296D20F019200915B462A0051461C
:104F00003800FFF79EF90500B1E71A0605D51C9A8F
:104F1000111D1C910023D25E96E71C9A111D1C9155
:104F2000126891E7C0C6001004C7001050C70010F7
:104F3000419000001C9A073207218A431100083172
:104F40001C9108930B9B07930694049600230593EA
:104F5000029353681268009201935B462A005146FF
:104F60003800FFF7CCF9050081E71C9A111D1C9150
:104F700005930B9B049303940296002301931368FB
:104F800000935B462A0051463800FFF75AF90500A6
:104F90006DE71A0606D51C9A111D1C9112681204A1
:104FA000120C28E71C9A111D1C91126823E7462851
:104FB0001AD01C9B0733072293431A0008321C9215
:104FC0004A4604920B9A039202941A685B68009214
:104FD00001935B462A0051463800FFF729FC050083
:104FE000119B01331193E0E520234A461A43914671
:104FF000DFE7672801D0472804D180231B014A46F8
:105000001A439146452801D0472803D120234A4618
:105010001A4391461C9B0733072293431A00083218
:105020001C924A4604920B9A039202941A685B6897
:10503000009201935B462A0051463800FFF7E6F9DB
:105040000500119B01331193AFE502234E461E402C
:105050004A4613421ED001241C9B1A1D1C926A1C36
:10506000904618785B462A005146B847002E14D166
:10507000119B01331193454697E5551C5B465146FC
:105080002020B84723002A005C1C0B999942F4D8D1
:105090001500E1E701232A00F6E7424606E0561C28
:1050A0005B4651462020B8472C003200651C0B9B04
:1050B000A342F4D89046DBE701330A0019780029AF
:1050C00002D0511E002AF7D19B1B8022D2004946F4
:1050D000114088464946114202D0A34200D923001C
:1050E000022249461140109149460A4208D02A003E
:1050F000250099463B004746984626E0220044E6B4
:10510000A1462A005146B2460E0006E0551C5B46F9
:1051100031002020B84723002A005C1C0B999942DB
:10512000F4D8150022004C46330056469A46914664
:105130002A0025003B004746984606E01D00013640
:10514000541C5B465146C04722003078002804D0EA
:10515000002FF4D06B1E002DF0D115004B464746B2
:10516000109A002A03D1119B013311931DE50B9E68
:105170002A0006E0551C5B4651462020B847230014
:105180002A005C1C9E42F5D81500ECE721234A4614
:105190001A4313001C9A111D1C91126805930823D1
:1051A00004930394083302930023019300925B4617
:1051B0002A0051463800FFF744F80500119B0133DF
:1051C0001193F2E46C1C5B462A0051462520B84737
:1051D000119B013311932500E7E46C1C5B462A0008
:1051E0005146B847119B013311932500DDE40A4F66
:1051F000D0E45D450DD35B465A1E5B465146002008
:10520000B847280013B0F0BCBB46B246A946A0463A
:10521000F0BD2A00F1E7C046514000100CB430B593
:1052200085B00A0008AC08CC0394054D0094010039
:105230002800FFF7A1FC05B030BC08BC02B018473D
:105240004940001010B584B00C0002A902904C60D7
:1052500001240448009313006242FFF78DFC04B060
:1052600010BDC0465340001000BEFDE703000A4ACF
:105270001268002A08D0084A1068C318074A9A42E0
:1052800006D3054A13607047034A05491160F2E7E7
:1052900001204042F7E7C046BC1F00200000042068
:1052A0002827002010B5FFF7DFFF000030B583B0DE
:1052B0000D001900002A0BD0074B084C01920093F7
:1052C0002B000200200000F0C9F90120FFF7CCFFFD
:1052D000034B1A00F1E7C04658BE001068BE00102C
:1052E00094B6001010B5EFF30583002B00D000BE7C
:1052F000FDF792FC034C01E008CC9847024B9C421E
:10530000FAD310BDACB50010B4B5001010B5030051
:10531000080011001B68984710BD0000F8B5070091
:105320000D001600437D002B02D0002400200CE06D
:1053300003681100280098472DE03B7D10E03B6892
:10534000154802219847601C0134B44214DA002C3D
:10535000F3DD2B19013B1B780D3B5A425341DBB265
:105360002A5D0A2AF0D1002BEED1A042E7DA3B6891
:10537000211A28189847E2E7B04203DA3B68311A4D
:1053800028189847002E06DDAD19013D2B780D3BFE
:105390005A4253413B75F8BDC0C8001070B50500B6
:1053A0000368002B16D00C4B1C6805E0290004C9CB
:1053B0002000FFF7B3FF2469002C09D02368002BDD
:1053C000F9D0064B1B68002BF0D0A342F3D1EDE7D8
:1053D00000232B6070BDC046A01F0020B41F00201A
:1053E00070B505000C000B68802B05D023685A1C93
:1053F0002260E418257170BD0800FFF7CFFFF5E7C4
:1054000010B5FDF743F9074A002312184B41002B52
:1054100003DB054806F084F810BD01225242034B1D
:10542000F7E7C04640420F0060150020FFFFFF7FF6
:1054300010B5024806F044F810BDC04660150020C3
:10544000F0B5CE46474680B583B006000D009046C5
:105450001C00FFF7D5FF81466B1C05D0002C08D03F
:10546000184F194B1C6807E0300004F071FC050070
:10547000F4E7164FF5E72469002C17D02368002BBA
:10548000F9D0134B1B68002B01D0A342F3D12A00A3
:1054900031002000B8474346002BECD06B46D91DA5
:1054A0000A230B7001222000B847E4E74B46002B8B
:1054B00005D1280003B0C0BCB946B046F0BDFFF727
:1054C000B7FFF6E71D530010A01F00200D5300107A
:1054D000B41F0020F0B583B006000F0001920093C6
:1054E000164B1C6808E0A368002B04D0390030007C
:1054F0009847002820DC2469002C06D0104B1D683A
:10550000002DF0D0A542F6D1EDE700990A000D4B31
:105510005B6A994209D80B49896A0198814209D28C
:105520009A4202D00220404206E001200021FDF70D
:10553000B5F8D5E70220404203B0F0BDA01F00201F
:10554000B41F0020004005400A4A136802E01A0018
:1055500010321B69002B09D013688342F7D1002950
:1055600007D1036913600023036102E0002900D022
:1055700010607047A01F002010B5064B1C6800E0AB
:105580002469002C04D06368002BF9D09847F7E712
:1055900010BDC046A01F002010B500F0F5F910BDE9
:1055A00000B583B00A4B1A685B68012101A8FFF7B8
:1055B00091FF002803DB012803D101AB187803B069
:1055C00000BD044B044A952104484900FFF76EFED4
:1055D00030C60010D8BE0010B0C800109CBE00102D
:1055E00010B582B004006B46D81D04700123002260
:1055F0000121FFF725FF200002B010BD70B50500A6
:1056000004F0A6FB04000123012201002800FFF79B
:1056100017FFFFF7B1FF200070BD0000F0B5A3B089
:1056200004000E00FFF7ECFE050001AF002301931C
:105630000948330022003900FFF704FE0400380057
:10564000FFF7ACFEFFF798FF002D02D1200023B03A
:10565000F0BDFFF7EDFEF9E7E15300100FB400B520
:1056600083B004A901C90191FFF7D8FF03B008BCBA
:1056700004B0184770470000014B00221A707047B1
:105680001F2700204B79FF2B0CD18B79002B0BD1DE
:10569000CB79012B0AD1082A0AD98A78054B1A70CE
:1056A000092000E0002070470020FCE70020FAE716
:1056B0000020F8E71F2700200120704710B50129BE
:1056C00027D1117953791B020B43134909788B4277
:1056D00001D000201EE05378012B03D0022B11D003
:1056E000002017E09178D3781B021943DB0506D51B
:1056F000480A8A05D20F7F231940FDF757FA012087
:105700004042F6E7642200210020FDF7F7F901206E
:1057100000E0012010BDC0461F2700200048704750
:105720008CC9001010B51400012910D15378012B39
:105730000FD1127963791B021343072B01D000208C
:1057400006E0054A9F33210001F054FB00E00120F0
:1057500010BD0020FCE7C046E4C800100123037020
:1057600000487047C4C8001010B50A784B781B0277
:1057700013438A7812041A43CB781B0613439622EC
:10578000D200934200D010BD0120002211004042FF
:10579000FDF70CFA024B1860024B19607047C046C7
:1057A000341F0020381F002010B5FCF76FFF0E4A91
:1057B000002312184B41002B12DB0C4805F0B0FE01
:1057C00000280CD001200021404201F0D9F900202E
:1057D00001F078FC0028F5D1044805F071FE10BDF9
:1057E00001225242024BE8E740420F00EC26002023
:1057F000FFFFFF7F10B5024B1878FCF7B7F810BD1C
:105800002127002070B5174B1B68002B20D0EFF329
:10581000108272B6100019680029FCD0BFF35F8FA8
:1058200010494A60104B00221A700B68BFF35F8F5B
:105830001A6080F31088002400250C4B1878FCF7C0
:1058400071F8002808D1002400252000290070BD2F
:10585000FA24A4000025F0E7044B1878FCF786F83A
:10586000F3E7C046B0240020232700202127002092
:10587000F0B585B0060014001D000CAB1F78FCF7D6
:1058800005FF22002B0012184B41002B09DB029769
:105890000B9901910A9900913000FCF71DFD05B0AC
:1058A000F0BD01225242014BF1E7C046FFFFFF7FEE
:1058B000F0B5C64600B584B00500884616001F0046
:1058C0000AAB1C78FCF7A0FC0294019700962A0012
:1058D0004346FFF7CDFF04B080BCB846F0BD0000E2
:1058E00010B582B02248002105F00AFE00281ED122
:1058F000204B1B68002B18D0EFF3108172B6080004
:105900001A68002AFCD0BFF35F8F1A4A51601A4907
:105910000B78DBB201240C701268BFF35F8F00219B
:10592000116080F31088002B17D002B010BD012049
:105930000021404201F024F9002001F09BFB04000B
:105940000B4805F0BDFD002CEFD00C4B1B68002B65
:10595000EBD00B4A10689847E7E70A4A01330093F7
:105960000023FA2080000021FFF7A2FFDDE7C046F8
:10597000EC260020B024002023270020341F002024
:10598000381F00200558001010B582B0D0231B0628
:105990001C68FCF739FCFCF719FDA04230D1274BFD
:1059A0001B780021002002F04FF8254B1B68002BCC
:1059B0002CD00120FCF7BCF9224C20702249FF2397
:1059C0001840FBF7F1FF20780121FBF7C5FF052008
:1059D000FBF7DCFF041E1DD00120FBF71FFF0100B9
:1059E0001A4B1800FCF704FA194900220520FCF7AD
:1059F00005F818480121FFF7A7FD200002B010BDEF
:105A0000154B164A1648C621FFF750FC0C48FCF708
:105A1000ADF9CEE70D4808220021FEF709FB114A37
:105A2000012300930023FA2080000021FFF740FFAC
:105A3000C043C40F0028E0DADBE7C046ACD1001059
:105A4000EC26002021270020E1580010B02400207F
:105A5000F5570010C00C0020E4BE0010BCC90010B7
:105A6000ECBE00100558001010B5002001F0E6FA59
:105A700010BD000070B505000C00FFF7F5FF002811
:105A800034D0002001F0F6FA002832D0FCF7FEFDF9
:105A90001B4A002312184B41002B19DB194805F053
:105AA0003FFD002828D0FFF7DFFF002804D00020AA
:105AB00001F0E0FA00280FD101200021404201F05E
:105AC0005FF8032464420F4805F0FAFC200070BD23
:105AD000012252420C4BE1E722002900002001F094
